:100000000C94F8000C9420010C9420010C94200115
:100010000C9420010C9420010C9420010C942001DC
:100020000C9420010C9420010C9420010C942001CC
:100030000C9420010C9420010C9420010C942001BC
:100040000C942C060C9420010C9432080C940C088F
:100050000C9420010C9420010C9420010C9420019C
:100060000C9420010C9420014E414E494E495459A4
:10007000494E46CDCCCC3D0AD7233C17B7D1387773
:10008000CC2B329595E6241FB14F0A000020410089
:1000900000C84200401C4620BCBE4CCA1B0E5AAED3
:1000A000C59D7400407A10F35A00A0724E180900E2
:1000B00010A5D4E80000E87648170000E40B5402CD
:1000C0000000CA9A3B000000E1F505000080969808
:1000D00000000040420F000000A086010000001058
:1000E0002700000000E8030000000064000000009A
:1000F000000A00000000000100000000002C76D87B
:1001000088DC674F0823DFC1DFAE59E1B1B796E560
:10011000E3E453C63AE651997696E8E6C28426EBC4
:10012000898C9B62ED407C6FFCEFBC9C9F40F2BAD7
:10013000A56FA5F490055A2AF75C936B6CF9676D6F
:10014000C11BFCE0E40D47FEF520E6B500D0ED90C4
:100150002E0300943577050080841E080000204E91
:100160000A000000C80C333333330F986E1283112A
:1001700041EF8D2114893BE65516CFFEE6DB18D101
:10018000844B381BF77C1D901DA4BBE424203284D3
:10019000725E228100C9F124ECA1E53D2700000038
:1001A00000240027002A0000000000250028002B62
:1001B0000004040404040404040202020202020310
:1001C000030303030301020408102040800102041A
:1001D000081020010204081020000000080002019D
:1001E00000000304070000000000000000001809E0
:1001F00011241FBECFEFD8E0DEBFCDBF12E0A0E0DC
:10020000B1E0E8E4F3E202C005900D92AC32B10730
:10021000D9F722E0ACE2B2E001C01D92AF3DB207D7
:10022000E1F710E0C8EFD0E004C02197FE010E9482
:10023000900FC73FD107C9F70E94C6080C94A211BE
:100240000C940000CF93DF93EC01BC0180919C01E2
:1002500090919D010E949E09892BB9F0BE01809169
:10026000A0019091A1010E949E09892B89F481E04F
:1002700090E0880F991F880F991FFC01E456FE4FEC
:1002800082819381DF91CF91089590E080E0F1CF5A
:100290008FEF9FEFF7CFCF93DF93EC016EEB71E021
:1002A00083E392E00E940408BE0183E392E00E948F
:1002B000040867EC71E083E392E00E940408609117
:1002C0002C0270912D024AE050E083E392E00E94FC
:1002D000A0076FEC71E083E392E00E940408609154
:1002E0003002709131024AE050E083E392E00E94D4
:1002F000A00765ED71E083E392E00E94040860913D
:100300002E0270912F024AE050E083E392E0DF91E9
:10031000CF910C94F0070F931F93CF93DF938DED44
:1003200091E00E9422018C0181EE91E00E94220165
:10033000EC010F3F100759F061E08091300290917D
:100340003102019709F460E0802F0E947105CF3FD0
:10035000DC0779F061E080912E0290912F020197E5
:1003600009F460E08C2FDF91CF911F910F910C94D5
:100370007105DF91CF911F910F9108950F931F93F6
:10038000CF93DF93CDB7DEB72C970FB6F894DEBFCF
:100390000FBECDBF83E392E00E943F0418161906FA
:1003A0000CF086C04AE063E372E0CE0107960E943B
:1003B0005207CE0107960E94760667EE71E0CE01E5
:1003C00007960E94EE06882309F47DC081E08093A1
:1003D000320280913202882309F466C06CEF71E02A
:1003E000CE0101960E941307BE016F5F7F4FCE01C1
:1003F00007960E94D3068C01CE0101960E940B073E
:1004000017FD06C081E090E09093310280933002A6
:1004100062E072E0CE0101960E941307BE016F5F99
:100420007F4FCE0107960E94D3068C01CE01019624
:100430000E940B0717FD04C0109231021092300287
:1004400068E072E0CE0101960E941307BE016F5F63
:100450007F4FCE0107960E94D3068C01CE010196F4
:100460000E940B0717FD06C081E090E090932F02D9
:1004700080932E0260E172E0CE0101960E94130784
:10048000BE016F5F7F4FCE0107960E94D3068C019D
:10049000CE0101960E940B0717FD04C010922F0297
:1004A00010922E020E948B01CE0107960E940B072C
:1004B0002C960FB6F894DEBF0FBECDBFDF91CF9163
:1004C0001F910F91089561EF71E0CE0107960E9490
:1004D000EE06882309F47DCF109232027ACFAF92D4
:1004E000BF92CF92DF92EF92FF920F931F93CF9321
:1004F000DF9300D000D000D0CDB7DEB749835A8358
:100500006B837C838D839E838091320281116CC0CA
:1005100009811A81CB80DC80ED80FE801093A501DB
:100520000093A40130932D0220932C0268E172E025
:10053000C8010E949E09892BE1F41C141D041E04AD
:100540001F040CF051C08091320281114DC088E12E
:1005500092E00E944B010E94BE0164E670E080E0E0
:1005600090E00E94F90584E6C81AD108E108F10874
:10057000E4CFC8010E9422015C018FEFA816B806E3
:1005800001F16DED71E0C8010E949E09892B21F4F3
:10059000D0923102C092300261EE71E0C8010E9437
:1005A0009E09892B21F4D0922F02C0922E0261E085
:1005B000CA94CD28CE28CF2809F460E08A2D0E9465
:1005C0007105C80126960FB6F894DEBF0FBECDBFE9
:1005D000DF91CF911F910F91FF90EF90DF90CF901F
:1005E000BF90AF900C944B0126960FB6F894DEBFE7
:1005F0000FBECDBFDF91CF911F910F91FF90EF9074
:10060000DF90CF90BF90AF90089526E040E051EE8C
:1006100060E070E083E392E00E94640861E0809112
:100620009E010E94BD0561E080919E010E947105BE
:1006300061E08091A2010E94BD0561E08091A2016C
:100640000E94710580913202811124C02FEF3FEF8B
:1006500040919001509191016091920170919301AC
:1006600080919401909195010E946F0280913202D5
:10067000811110C02FEF3FEF4091960150919701EB
:10068000609198017091990180919A0190919B01DC
:100690000C946F0208951F93CF93DF930E94BE01C5
:1006A00080913202D0E0C0E016E0882369F08DE14D
:1006B00092E00E944B0168EC70E080E090E0DF91F6
:1006C000CF911F910C94F90580913202811114C0D1
:1006D0001C9FF0011D9FF00D1124E050FF4F9E0163
:1006E0004081518162817381848195810E946F0272
:1006F0002196C831D10541F7DF91CF911F9108951F
:100700003FB7F8948091D5029091D602A091D7027C
:10071000B091D80226B5A89B05C02F3F19F00196CD
:10072000A11DB11D3FBFBA2FA92F982F8827BC014B
:10073000CD01620F711D811D911D42E0660F771F73
:10074000881F991F4A95D1F70895CF93DF93EC0145
:100750002FB7F8948091D1029091D202A091D30248
:10076000B091D4022FBF88879987AA87BB87E88179
:10077000F9810284F385E02DCE01099597FF1EC013
:100780002FB7F8948091D1029091D202A091D30218
:10079000B091D4022FBF488559856A857B85841B1B
:1007A000950BA60BB70B4C815D816E817F81841701
:1007B0009507A607B707D8F28FEF9FEFDF91CF918C
:1007C0000895AF92BF92CF92DF92EF92FF920F9374
:1007D0001F93CF93DF936C017B018B01040F151FD7
:1007E000EB015E01AE18BF08C017D10759F069913F
:1007F000D601ED91FC910190F081E02DC6010995A3
:10080000892B79F7C501DF91CF911F910F91FF904F
:10081000EF90DF90CF90BF90AF900895FC01538D83
:10082000448D252F30E0842F90E0821B930B5417CA
:1008300010F0CF96089501970895FC01918D828D57
:10084000981761F0A28DAE0FBF2FB11D5D968C91F0
:10085000928D9F5F9F73928F90E008958FEF9FEF2F
:100860000895FC01918D828D981731F0828DE80FEB
:10087000F11D858D90E008958FEF9FEF0895FC01A5
:10088000918D228D892F90E0805C9F4F821B910972
:100890008F739927089583E392E00E943F0421E03B
:1008A000892B09F420E0822F089580E090E0892BC5
:1008B00029F00E944B0481110C9400000895FC0162
:1008C000A48DA80FB92FB11DA35ABF4F2C91848DB1
:1008D00090E001968F739927848FA689B7892C930E
:1008E000A089B1898C91837080648C93938D848D61
:1008F000981306C00288F389E02D80818F7D808364
:100900000895EF92FF920F931F93CF93DF93EC0123
:1009100081E0888F9B8D8C8D98131AC0E889F989A6
:10092000808185FF15C09FB7F894EE89FF896083A9
:10093000E889F98980818370806480839FBF81E02A
:1009400090E0DF91CF911F910F91FF90EF9008956C
:10095000F62E0B8D10E00F5F1F4F0F731127E02E47
:100960008C8D8E110CC00FB607FCFACFE889F9897F
:10097000808185FFF5CFCE010E945F04F1CFEB8D22
:10098000EC0FFD2FF11DE35AFF4FF0829FB7F89453
:100990000B8FEA89FB8980818062CFCFCF93DF9371
:1009A000EC01888D8823B9F0AA89BB89E889F98987
:1009B0008C9185FD03C0808186FD0DC00FB607FCBC
:1009C000F7CF8C9185FFF2CF808185FFEDCFCE01EF
:1009D0000E945F04E9CFDF91CF9108950F931F9399
:1009E000CF93DF93EC0188819981009759F02A8198
:1009F0003B812617370730F081E0DF91CF911F91BF
:100A00000F9108958B016F5F7F4F0E94BB1000977D
:100A100059F0998388831B830A832C813D81232B82
:100A200059F7FC011082E8CF80E0E7CFFB0101908D
:100A30000020E9F73197AF01461B570BDC01ED9120
:100A4000FC910280F381E02D09948F929F92AF92E6
:100A5000BF92EF92FF920F931F93CF93DF93CDB787
:100A6000DEB7A1970FB6F894DEBF0FBECDBF7C01F5
:100A7000FA01CB0119A2223008F42AE08E010F5DA1
:100A80001F4F822E912CB12CA12CBF01A5019401E6
:100A90000E946E0FF901CA016A300CF5605DD80141
:100AA0006E938D01232B242B252B79F790E080E08A
:100AB000109721F0BD01C7010E941605A1960FB63F
:100AC000F894DEBF0FBECDBFDF91CF911F910F9184
:100AD000FF90EF90BF90AF909F908F900895695CCA
:100AE000DECF90E0FC01E752FE4F2491FC01EB5376
:100AF000FE4F3491FC01EF54FE4FE491EE23C9F018
:100B0000222339F0233001F1A8F4213019F12230E9
:100B100029F1F0E0EE0FFF1FE955FE4FA591B491CA
:100B20008FB7F894EC91611126C030953E233C9329
:100B30008FBF08952730A9F02830C9F0243049F735
:100B4000809180008F7D03C0809180008F7780939B
:100B50008000DFCF84B58F7784BDDBCF84B58F7DF8
:100B6000FBCF8091B0008F778093B000D2CF80917F
:100B7000B0008F7DF9CF3E2BDACFCF93DF9390E09B
:100B8000FC01EB53FE4F24918F549E4FFC01849146
:100B90008823C9F090E0880F991FFC01E356FE4FAF
:100BA000A591B491FC01E955FE4FC591D491611115
:100BB0000DC09FB7F8948C91209582238C938881E7
:100BC000282328839FBFDF91CF910895623051F48D
:100BD0009FB7F8943C91822F809583238C93E88172
:100BE0002E2BEFCF8FB7F894EC912E2B2C938FBF39
:100BF000EACF8F929F92AF92BF92CF92DF92EF9205
:100C0000FF926B017C010E9480034B015C01C114C7
:100C1000D104E104F104B9F00E9480036819790954
:100C20008A099B09683E73408105910580F321E0A4
:100C3000C21AD108E108F10888EE880E83E0981EF8
:100C4000A11CB11CE4CFFF90EF90DF90CF90BF903C
:100C5000AF909F908F9008951F920F920FB60F92B2
:100C600011242F933F938F939F93AF93BF938091C2
:100C7000D1029091D202A091D302B091D4023091CE
:100C8000D00223E0230F2D3758F50196A11DB11D89
:100C90002093D0028093D1029093D202A093D302EA
:100CA000B093D4028091D5029091D602A091D70240
:100CB000B091D8020196A11DB11D8093D5029093E9
:100CC000D602A093D702B093D802BF91AF919F9163
:100CD0008F913F912F910F900FBE0F901F901895FD
:100CE00026E8230F0296A11DB11DD2CFAF92BF926D
:100CF000CF92DF92EF92FF920F931F93CF93DF93E8
:100D0000DC01CD90DC901197C114D10439F0149618
:100D1000CD91DC918C017601209761F4DF91CF9128
:100D20001F910F91FF90EF90DF90CF90BF90AF9009
:100D3000089575015701BFEFAB1ABB0AF701808117
:100D4000082E000C990B0E94C50D892B91F7219755
:100D5000CC0DDD1D8881082E000C990B0E94C50D5D
:100D6000892B29F0CE15DF0510F02197F3CFAE01C6
:100D70004F5F5F4F4E195F09D80115965C934E93F4
:100D80001497CE14DF0420F4B701C6010E94781135
:100D9000D801ED91FC91119714968D919C91E80FDB
:100DA000F91F1082BBCFCF93DF93DC0114962D91F6
:100DB0003C911597232B79F0FB01CD91DC9160815B
:100DC0007181CE010E948811009729F08C1B9D0B28
:100DD000DF91CF9108958FEF9FEFFACFFC0124812F
:100DE0003581232B31F421E0FB01672B49F4822F5D
:100DF0000895808191816115710539F421E0FC012C
:100E000080818823A1F320E0F2CF0E949E0921E097
:100E1000892B69F3F8CFFC0180819181009711F053
:100E20000C9432100895EF92FF920F931F93CF937B
:100E3000DF93EC01198218821B821A821D821C82A8
:100E400061157105E1F08B01FB0101900020E9F7CC
:100E500031977F01E61AF70AB7010E94EE04288154
:100E60003981811113C02115310519F0C9010E9482
:100E70003210198218821D821C821B821A82DF9115
:100E8000CF911F910F91FF90EF900895FD82EC821A
:100E9000B801C901DF91CF911F910F91FF90EF90A1
:100EA0000C948111AF92BF92CF92DF92EF92FF929A
:100EB0000F931F93CF93DF9300D0CDB7DEB78C0194
:100EC0005B01C42E6BE272E00E941307C5010E9411
:100ED000A5030C2C000CDD0897FD24C0C816D9060C
:100EE00009F189831A82F801E480F580FFEFEF1A97
:100EF000FF0AB701C8010E94EE04882379F0F801C7
:100F00002081318184819581BE016F5F7F4F820F87
:100F1000931F0E948111F801F582E482C5010E94AD
:100F2000A503DACFC8010F900F90DF91CF911F91E9
:100F30000F91FF90EF90DF90CF90BF90AF9008950A
:100F4000CF92DF92EF92FF920F931F93CF93DF9395
:100F50004115510579F4DC01ED91FC910190F0818E
:100F6000E02DDF91CF911F910F91FF90EF90DF90D7
:100F7000CF9009946B01770FEE08FF084A305105B6
:100F800011F52AE0F7FE20C0EC01E881F98101901B
:100F9000F081E02D6DE209958C0144275527BA01B7
:100FA0004C195D096E097F092AE0CE010E942505D2
:100FB000800F911FDF91CF911F910F91FF90EF90C4
:100FC000DF90CF900895242FB701A601DF91CF9134
:100FD0001F910F91FF90EF90DF90CF900C9425051B
:100FE0000F931F93CF93DF93EC010E94A0078C0116
:100FF00069E272E0CE010E941605800F911FDF9119
:10100000CF911F910F9108956115710511F00C9406
:10101000160590E080E008951F920F920FB60F9290
:1010200011242F933F934F935F936F937F938F93ED
:101030009F93AF93BF93EF93FF9383E392E00E945C
:101040005F04FF91EF91BF91AF919F918F917F913D
:101050006F915F914F913F912F910F900FBE0F9025
:101060001F9018951F920F920FB60F9211242F9375
:101070008F939F93EF93FF93E0914302F09144028B
:101080008081E0914902F0914A0282FD1BC090816B
:1010900080914C028F5F8F7320914D02821741F037
:1010A000E0914C02F0E0ED5CFD4F958F80934C0297
:1010B000FF91EF919F918F912F910F900FBE0F9005
:1010C0001F9018958081F4CFCF92DF92EF92FF921C
:1010D0001F93CF93DF93EC016A017B01122FE88904
:1010E000F98982E08083C11481EED806E104F1041D
:1010F000A1F060E079E08DE390E0A70196010E9405
:101100006E0F215031094109510956954795379580
:101110002795211580E1380798F0E889F989108230
:1011200060E874E88EE190E0A70196010E946E0FDE
:101130002150310941095109569547953795279511
:10114000EC85FD853083EE85FF852083188EEC8944
:10115000FD891083EA89FB89808180618083EA8927
:10116000FB89808188608083EA89FB89808180682F
:101170008083EA89FB8980818F7D8083DF91CF9195
:101180001F91FF90EF90DF90CF900895789484B5F1
:10119000826084BD84B5816084BD85B5826085BD73
:1011A00085B5816085BD80916E00816080936E0001
:1011B00010928100809181008260809381008091F3
:1011C00081008160809381008091800081608093A4
:1011D00080008091B10084608093B1008091B00064
:1011E00081608093B00080917A00846080937A005F
:1011F00080917A00826080937A0080917A00816089
:1012000080937A0080917A00806880937A001092AF
:10121000C1000E940503C0E0D0E00E944B0320976C
:10122000E1F30E944B048823C1F30E940000F5CF34
:10123000E3E3F2E01382128288EE93E0A0E0B0E0F4
:1012400084839583A683B78380EB91E09183808329
:1012500085EC90E09587848784EC90E0978786877B
:1012600080EC90E0918B808B81EC90E0938B828B73
:1012700082EC90E0958B848B86EC90E0978B868B4C
:10128000118E128E138E148E0895EF920F931F936A
:10129000CF93DF93E80134E047FD34E1042E000CE6
:1012A000550B57FF03C0519541955109E32E022F6D
:1012B000242FAE010E943E0ACE01DF91CF911F91F3
:1012C0000F91EF900895662777270C949D0B1F933D
:1012D000FC0199278827BC01E89411911032E9F3A9
:1012E000193010F01E30C8F31B3251F01D3249F492
:1012F000689406C00E94D709610F711D811D911D60
:10130000119110531A30B0F33EF49095809570957A
:1013100061957F4F8F4F9F4F1F910895FB01DC0117
:1013200005900D920020E1F70895FC010590002042
:10133000E9F7809590958E0F9F1F0895FB01DC01C2
:101340008D91019080190110D9F3990B08954532C0
:10135000510520F4423010F00C94B209FB011082C8
:10136000CB010895BB274A3031F4992322F4BDE222
:10137000909581959F4F0C94250A2532310520F4D4
:10138000223010F00C94C809FA011082CA010895A5
:10139000BB272A3051F4992342F4BDE29095809501
:1013A000709561957F4F8F4F9F4F0C94F809592F7F
:1013B000482F372F262F660F771F881F991F660F1C
:1013C000771F881F991F620F731F841F951F660F59
:1013D000771F881F991F08952532310520F4223088
:1013E00010F00C94F709FA011082CA010895BB2786
:1013F000FA01A62F6217710581059105330B30FBA9
:1014000066F0AA27660F771F881F991FAA1FA217C9
:1014100010F0A21B63953850A9F7A05DAA3308F01D
:10142000A95DA19336F7B111B1931082CA010C9452
:10143000E60D4532510520F4423010F00C94240A98
:10144000FB011082CB010895BB27FB015527AA277A
:10145000880F991FAA1FA41710F0A41B8395505141
:10146000B9F7A05DAA3308F0A95DA193009779F7B9
:10147000B111B1931192CB010C94E60DA9E0B0E04B
:10148000E4E4FAE00C942E0F6A01F22EB02E102F35
:10149000FBE3AF2EA01608F41BE31F5F012F27E02C
:1014A000AE014F5F5F4F0E94ED0CBC018981982F08
:1014B0009970913009F43FC09BE2E1FC04C09E2D7D
:1014C0009170E0FC3AC05E2D5071E82FE87083FF08
:1014D00046C084E0911101C083E0EF2DE81B8F1519
:1014E00008F0E0E0D6018E2F20E2552351F1992338
:1014F00029F0D6019C93C60101966C0196012D5FDF
:101500003F4FE2FE24C08EE4D6018C9391E4119605
:101510009C93119712968C93D9018E2F90E2811192
:101520001BC0E20FF32FF11D10828EEF9FEF299663
:10153000ECE00C944A0F9DE2C6CF90E2C4CF2D930D
:1015400081508111FCCFCE0ED11CE0E0D0CF8EE6D1
:10155000D6018C9391E6DBCF9D938150E0CF482F4D
:10156000447082FF3DC084E0911101C083E08F157B
:1015700010F4EF2DE81BD6018E2F20E2552309F140
:10158000992329F0D6019C93C60101966C0196011E
:101590002D5F3F4FE2FE1BC089E4D6018C938EE4A1
:1015A00011968C93119786E412968C93D9018E2F05
:1015B00090E2882309F4B5CF9D938150FACF2D9303
:1015C00081508111FCCFCE0ED11CE0E0D9CF89E64D
:1015D000D6018C938EE611968C93119786E6E4CF14
:1015E0009B0177FF02C030E020E0A1E0B0E0911164
:1015F00002C0B0E0A0E0F9013196AE0FBF1F8B2C06
:10160000912CBB2009F461C05401EFEFAE1ABE0A61
:10161000AA0DBB1DFA161B0619F014F04F2D4A1B1C
:10162000511188C0E3FC59C07601A42FB0E2A1118A
:101630004FC0C40ED11C992309F45BC040E0D60111
:101640001196F60190836D01552309F448C0012FCE
:10165000060F9A81582F507184FF03C0913309F40B
:10166000015010160CF047C0093008F008E0EEE217
:10167000FE2E5B01A01AB108850191948194910816
:101680002F3F320729F4D601FC92F60131966F0103
:101690006217730794F1021713077CF5DB01A21B95
:1016A000B30BAA24A394B12CAC0EBD1EAA0DBB1D76
:1016B00011968C9121503109D601119628153905C2
:1016C000F4F0F60180836D01DBCFB12CA12CA0CF0B
:1016D000F701B1937F01A150AACF9111B0CFD601EC
:1016E000942F50E302C05D9391509111FCCFC40E32
:1016F000D11C40E0ACCF01E0BACF80E3DBCF621772
:10170000730731F4963388F4953311F4552369F057
:10171000F6018083FD01842F90E2811108C0A40F9F
:10172000B11D1C9290E080E002CF81E3F1CF919354
:101730008150F3CF911183CF8ACFB0E0A0E0E3EAEC
:10174000FBE00C942E0F5C017B016115710519F013
:10175000DB018D939C9385010F5F1F4FF501D081B5
:101760008D2F90E00E94C50D6C01892BB9F5DD32FB
:10177000B9F50F5F1F4FD5011196DC91C1E05801FB
:10178000F1E0AF1AB10843E050E060E770E0C50156
:101790000E94CE0D892B69F5680182E0C80ED11C2C
:1017A00045E050E06BE670E0C6010E94CE0D892B4B
:1017B00021F4680197E0C90ED11CE114F10419F07D
:1017C000D701CD92DC9260E070E080E89FEFC1111C
:1017D000FFC060E070E080E89FE7FAC05801BBCF2F
:1017E000DB3229F485010E5F1F4FF501D181C0E086
:1017F000C6CF43E050E068E670E0C5010E94CE0D20
:10180000892BE9F0F80110E000E020E030E0A901C8
:101810005F01B0ED8B2E8D0E89E08815C8F19C2EEE
:10182000689491F88C2F8870C2FF16C0811102C095
:101830000F5F1F4F3196D501DC91C92DE9CFE1141F
:10184000F10429F00E5F1F4FF7011183008360E060
:1018500070E080EC9FE7BCC0882311F001501109B3
:10186000A5E0B0E00E941D0F9B01AC01220F331FC9
:10187000441F551F280D311D411D511D283999E95F
:101880003907490799E15907A8F2C6609C2ED2CFC3
:10189000AEEF8A1206C0C3FD3CC09C2E689493F83C
:1018A000C9CFDF7DD534A9F580818D3239F4C0618F
:1018B000DF011296818162E070E006C0DF018B32A9
:1018C000C1F3119661E070E080535D01A61AB70A7A
:1018D0008A30F8F4E0E8CE16ECE0DE065CF4B601FF
:1018E000660F771F660F771FC60ED71ECC0CDD1C48
:1018F000C80ED11C5D01FFEFAF1ABF0A8C91805357
:101900008A30A8F1C4FF03C0D194C194D1080C0D52
:101910001D1DC1FF09C0E114F10431F081E0A81AD6
:10192000B108D701AD92BC92CA01B9010E94FB0D6A
:10193000C370C33009F490584B015C0120E030E0E3
:10194000A9010E94F60D882309F440C0CFE9D0E038
:1019500017FF05C0119501951109C7E8D0E06E0188
:10196000B8E1CB1AD10880E2E82EF12C0FC0D501E6
:10197000B1CFFE0125913591459154910E191F0962
:10198000C501B4010E945C0E4B015C01D501C4018C
:101990000E151F0574F72497F594E794CC16DD0611
:1019A000A9F78A2F880F8B2F881F8F3F49F020E0DF
:1019B00030E0A901C501B4010E94F60D811106C0F5
:1019C00082E290E09093DA028093D902C501B401DB
:1019D000CDB7DEB7ECE00C944A0F283008F027E0D2
:1019E0003327DA01990F311D87FD9160009661055B
:1019F000710539F432602E5F3D9330E32A95E1F7AB
:101A000008959F3F30F080387105610509F03C5F13
:101A10003C5F3D93913008F08068911DDF93CF9338
:101A20001F930F93FF92EF92192F987F9695E92FAE
:101A300096959695E90FFF27E350FF4F9927332797
:101A4000EE24FF24A701E70105900894079428F4E9
:101A5000360FE71EF81E491F511D660F771F881F9E
:101A6000991F0694A1F70590079428F4E70EF81E35
:101A7000491F561FC11D770F881F991F661F0694A7
:101A8000A1F70590079428F4F80E491F561FC71FA9
:101A9000D11D880F991F661F771F0694A1F7059027
:101AA000079420F4490F561FC71FD81F990F661FB0
:101AB000771F881F0694A9F784911095177041F03D
:101AC000D695C79557954795F794E7941A95C1F71A
:101AD000E3EAF0E068941590159135916591959140
:101AE00005907FE27395E118F10A430B560BC90B81
:101AF000D009C0F7E10CF11E431F561FC91FD01DAE
:101B00007EF4703311F48A95E6CFE894015030F0FA
:101B1000080F0AF40027021708F4202F2395022F3C
:101B20007A3328F079E37D932A95E9F710C07D9305
:101B30002A9589F606949795679537951795179482
:101B4000E118F10A430B560BC90BD00998F0239505
:101B50007E9173957A3308F070E37C932013B8F785
:101B60007E9170617D9330F0839571E37D9370E396
:101B70002A95E1F71124EF90FF900F911F91CF91DB
:101B8000DF91992787FD9095089591110C94C90EC6
:101B9000803219F089508550C8F70895FB01DC01A7
:101BA0004150504088F08D9181341CF08B350CF4FD
:101BB000805E659161341CF06B350CF4605E861BB1
:101BC000611171F3990B0895881BFCCFDC01FC01B6
:101BD000672F71917723E1F7329704C07C916D9361
:101BE00070836291AE17BF07C8F308950E94380E44
:101BF00008F481E00895E89409C097FB3EF49095BD
:101C00008095709561957F4F8F4F9F4F9923A9F0D5
:101C1000F92F96E9BB279395F69587957795679564
:101C2000B795F111F8CFFAF4BB0F11F460FF1BC0A8
:101C30006F5F7F4F8F4F9F4F16C0882311F096E93B
:101C400011C0772321F09EE8872F762F05C06623E9
:101C500071F096E8862F70E060E02AF09A95660FA2
:101C6000771F881FDAF7880F9695879597F908955B
:101C7000990F0008550FAA0BE0E8FEEF161617069D
:101C8000E807F907C0F012161306E407F50798F005
:101C9000621B730B840B950B39F40A2661F0232B1E
:101CA000242B252B21F408950A2609F4A140A6959A
:101CB0008FEF811D811D08950E946F0E0C94E30E1D
:101CC0000E94D50E38F00E94DC0E20F0952311F012
:101CD0000C94CC0E0C94D20E11240C94170F0E946D
:101CE000F40E70F3959FC1F3950F50E0551F629F5E
:101CF000F001729FBB27F00DB11D639FAA27F00D65
:101D0000B11DAA1F649F6627B00DA11D661F829F8B
:101D10002227B00DA11D621F739FB00DA11D621F70
:101D2000839FA00D611D221F749F3327A00D611D8D
:101D3000231F849F600D211D822F762F6A2F11246F
:101D40009F5750409AF0F1F088234AF0EE0FFF1FA2
:101D5000BB1F661F771F881F91505040A9F79E3FF9
:101D6000510580F00C94CC0E0C94170F5F3FE4F3F8
:101D7000983ED4F3869577956795B795F795E7954F
:101D80009F5FC1F7FE2B880F911D9695879597F958
:101D9000089599278827089597F99F6780E870E04C
:101DA00060E008959FEF80EC089500240A941616D1
:101DB000170618060906089500240A941216130639
:101DC000140605060895092E0394000C11F48823C7
:101DD00052F0BB0F40F4BF2B11F460FF04C06F5FE3
:101DE0007F4F8F4F9F4F089557FD9058440F551FB9
:101DF00059F05F3F71F04795880F97FB991F61F08D
:101E00009F3F79F087950895121613061406551F03
:101E1000F2CF4695F1DF08C0161617061806991F6F
:101E2000F1CF86957105610508940895E894BB2764
:101E300066277727CB0197F908950E945F0FA59F2A
:101E4000900DB49F900DA49F800D911D11240895B5
:101E50002F923F924F925F926F927F928F929F92BA
:101E6000AF92BF92CF92DF92EF92FF920F931F93A8
:101E7000CF93DF93CDB7DEB7CA1BDB0B0FB6F89459
:101E8000DEBF0FBECDBF09942A88398848885F8499
:101E90006E847D848C849B84AA84B984C884DF800A
:101EA000EE80FD800C811B81AA81B981CE0FD11DEE
:101EB0000FB6F894DEBF0FBECDBFED010895A29F0F
:101EC000B001B39FC001A39F700D811D1124911D0E
:101ED000B29F700D811D1124911D0895A1E21A2E4B
:101EE000AA1BBB1BFD010DC0AA1FBB1FEE1FFF1FBE
:101EF000A217B307E407F50720F0A21BB30BE40B0E
:101F0000F50B661F771F881F991F1A9469F7609554
:101F10007095809590959B01AC01BD01CF0108950E
:101F2000EE0FFF1F0590F491E02D09940F931F937E
:101F3000CF93DF938230910510F482E090E0E0913E
:101F4000DD02F091DE0230E020E0B0E0A0E030976A
:101F500099F42115310509F44AC0281B390B2430A6
:101F60003105D8F58A819B816115710589F1FB01E5
:101F700093838283FE0111C04081518102811381CC
:101F800048175907E0F04817590799F4109761F07E
:101F900012960C93129713961C933296CF01DF91F1
:101FA000CF911F910F9108950093DD021093DE02EF
:101FB000F4CF2115310551F04217530738F0A9012C
:101FC000DB019A01BD01DF01F801C1CFEF01F9CFBB
:101FD0009093DE028093DD02CDCFFE01E20FF31F6E
:101FE000819391932250310939832883D7CF20914F
:101FF000DB023091DC02232B41F42091A8013091C7
:10200000A9013093DC022093DB022091A6013091DC
:10201000A7012115310541F42DB73EB74091AA0122
:102020005091AB01241B350BE091DB02F091DC02F7
:10203000E217F307A0F42E1B3F0B2817390778F09F
:10204000AC014E5F5F4F2417350748F04E0F5F1FFE
:102050005093DC024093DB02819391939FCFF0E099
:10206000E0E09CCFCF93DF930097E9F0FC0132973B
:1020700013821282A091DD02B091DE02ED0130E008
:1020800020E01097A1F420813181820F931F2091CD
:10209000DB023091DC022817390709F061C0F093A8
:1020A000DC02E093DB02DF91CF910895EA01CE17C5
:1020B000DF07E8F54A815B819E0141155105B1F7C3
:1020C000E901FB83EA8349915991C40FD51FEC17AD
:1020D000FD0761F4808191810296840F951FE901CB
:1020E00099838883828193819B838A83F0E0E0E0F7
:1020F00012968D919C9113970097B9F52D913C9173
:102100001197CD010296820F931F2091DB0230912F
:10211000DC022817390739F6309751F51092DE02A4
:102120001092DD02B093DC02A093DB02BCCFD3831C
:10213000C28340815181840F951FC817D90761F46C
:102140004E5F5F4F88819981480F591F51834083AB
:102150008A819B81938382832115310509F0B0CF59
:10216000F093DE02E093DD029ECFFD01DC01C0CFE3
:1021700013821282D7CFB0E0A0E0E1ECF0E10C9442
:102180002A0F8C01009751F4CB010E94960F8C010D
:10219000C801CDB7DEB7E0E10C94460FFC01E60FB5
:1021A000F71F9C0122503109E217F30708F49DC084
:1021B000D901CD91DC911197C617D70798F0C5309A
:1021C000D10530F3CE0104978617970708F3C61B95
:1021D000D70B2297C193D1936D937C93CF010E942B
:1021E0003210D6CF5B01AC1ABD0A4C018C0E9D1E7D
:1021F000A091DD02B091DE02512C412CF12CE12C9A
:10220000109731F58091DB029091DC0288159905D9
:1022100009F05CC04616570608F058C08091A60128
:102220009091A701009741F48DB79EB74091AA0104
:102230005091AB01841B950BE817F90708F055C0C6
:10224000F093DC02E093DB02F90171836083A0CF9D
:102250008D919C91119712966C90129713967C9089
:102260001397A815B90559F56C0142E0C40ED11CAD
:10227000CA14DB0420F1AC014A195B09DA01129699
:10228000159780F06282738251834083D9016D93E8
:102290007C93E114F10471F0D7011396FC93EE9353
:1022A000129776CF22968C0F9D1FF9019183808320
:1022B000F301EFCFF093DE02E093DD0269CF481621
:1022C000590608F42C017D01D3019ACFCB010E945D
:1022D000960F7C01009749F0AE01B8010E94781179
:1022E000C8010E943210870153CF10E000E050CFA8
:1022F000FB01DC0102C001900D9241505040D8F723
:102300000895FB01DC0101900D920020E1F7089592
:10231000FB0151915523A9F0BF01DC014D914517F7
:102320004111E1F759F4CD010190002049F04D91A0
:1023300040154111C9F3FB014111EFCF81E090E05D
:0823400001970895F894FFCF06
:10234800DD01010000001802FA000000DD010000B4
:102358000000180230750000DD01010000001802BD
:102368005E010000DD0100000000180260EA0000C4
:10237800DD01010000001802FA000000DD01000084
:1023880000001802C0D40100DD010100000018029D
:10239800F4010000DD01000000001802C8AF0000D1
:1023A800DD010100000018022C010000DD01000021
:1023B8000000180210270000DD01010000001802CB
:1023C8002C010000DD01000000001802701101005E
:1023D800E10101000000180288130000DD0105007A
:1023E800E1010A0024020000DF0280000000000072
:1023F8008104E1030E04CE043F041D043104525548
:102408004E4E494E473A007C494E4445583A007C66
:1024180046414E3A007C534D4F4B453A0066616E3B
:1024280000736D6F6B65004D414E55414C3A4F4EF0
:10243800004D414E55414C3A4F46460046414E3AB2
:10244800310046414E3A3000534D4F4B453A31002A
:10245800534D4F4B453A300077616974004D414EFA
:0C24680055414C00696E6974000D0A00BB
:00000001FF
